:020000040000FA
:100000000DEF00F0F9263F0C060C5B0C4F0C660C54
:100010006D0C7D0C070C7F0C6F0C070EB46E0F0E71
:10002000C16E7F0E926EE86A806A936A8A6A8C6AF1
:10003000956A8C6A80CF00F00C0E001680CF01F01C
:10004000030E01160042004280BA29EF00F02EEFA5
:1000500000F080B824EF00F058EF00F080B83BEFDC
:1000600000F033EF00F000500124E84402EC00F00F
:100070008A6E19EF00F00150005CD8B847EF00F02D
:1000800042EF00F0066E000E086E4FEF00F0066EB5
:10009000061E010E0626010E086E4FEF00F0086ED8
:1000A0008C6E0650E84402EC00F08A6E19EF00F006
:1000B00000500102F3CFE8FFE84402EC00F08A6E42
:0800C00019EF00F00DEF00F054
:0200C800000036
:020000040030CA
:0100000000FF
:0100010008F6
:0100020018E5
:010003001EDE
:010005008179
:010006008178
:010008000FE8
:01000900C036
:01000A000FE6
:01000B00E014
:01000C000FE4
:01000D0040B2
:00000001FF
