:020000040000FA
:100000000DEF00F0F9263F0C060C5B0C4F0C660C54
:100010006D0C7D0C470C7F0C670C0F0EC16E070E2C
:10002000B46EFF0E926E8C6A956A80CF00F00C0E53
:1000300000160042004280CF01F0300E011601424E
:1000400001420142014280A228EF00F02DEF00F0B2
:1000500080A032EF00F036EF00F080A03DEF00F01E
:1000600041EF00F00050012442EF00F00050015C2D
:10007000D8B042EF00F04EEF00F00050010248EF20
:1000800000F08C6AE84402EC00F08C6E15EF00F092
:10009000F34402EC00F08C6E15EF00F08C8EE86CEF
:0400A00042EF00F03B
:0200A40000005A
:020000040030CA
:0100000000FF
:0100010008F6
:0100020018E5
:010003001EDE
:010005008179
:010006008178
:010008000FE8
:01000900C036
:01000A000FE6
:01000B00E014
:01000C000FE4
:01000D0040B2
:00000001FF
