:020000040000FA
:1000000025D0F9263F0C060C5B0C4F0C460E146EE7
:100010000000142E09EF00F0690E136E4D0E126EE3
:100020000000122EFED7132EF9D712000B0E156EFC
:100030000000152E19EF00F00A0E116E4D0E106E15
:100040000000102EFED7112EF9D71200846A966890
:100050000F0EC16E070E8A6A936A030E0E6E000EB3
:100060000F6E000E0D6E0D50E84401EC00F08A6E2C
:100070000D50E84401EC00F08A6E84B042EF00F0CD
:1000800047EF00F084A23DEF00F04EEF00F016ECD9
:1000900000F084B047EF00F055EF00F016EC00F0F0
:1000A00084A24EEF00F05BEF00F00D500E6261EFA6
:1000B00000F038EF00F00D0E006473EF00F03DEF3C
:1000C00000F00D2A0D50E84401EC00F08A6E06ECB9
:1000D00000F006EC00F006EC00F006EC00F006EC98
:1000E00000F03DEF00F00D060D50E84401EC00F08B
:1000F0008A6E06EC00F006EC00F006EC00F006EC70
:0A01000000F006EC00F03DEF00F007
:02010A000000F3
:020000040030CA
:0100000000FF
:0100010008F6
:0100020018E5
:010003001EDE
:010005008179
:010006008178
:010008000FE8
:01000900C036
:01000A000FE6
:01000B00E014
:01000C000FE4
:00000001FF
