:020000040000FA
:100000001EEF00F00000000000000A0E016E09EF74
:1000100000F0850E006E00000000000000000000EF
:100020000000000000000000000000000000002EA2
:100030000BEF00F0012E09EF00F01200846A030EAE
:10004000966E0F0EC16E816A936A700ED36E84B085
:1000500031EF00F002EC00F084A02AEF00F03BEF5B
:1000600000F084A227EF00F002EC00F084B234EF3D
:1000700000F03EEF00F0818C27EF00F0819C27EF2D
:0200800000F08E
:0200820000007C
:020000040030CA
:0100000000FF
:0100010008F6
:0100020018E5
:010003001EDE
:010005008179
:010006008178
:010008000FE8
:01000900C036
:01000A000FE6
:01000B00E014
:01000C000FE4
:00000001FF
