:020000040000FA
:1000000010D0E80E0D6E510E0C6E00000C2E06EF97
:1000100000F00D2E03EF00F0120080A412000DEF8F
:1000200000F0806A92680F0EC16E070E936A8A6AAA
:10003000E86A80A023EF00F01EEF00F080A023EF1D
:1000400000F0ADEF00F080A028EF00F01EEF00F010
:1000500080B40DEC00F080B223EF00F0790E8A6ED0
:1000600001EC00F001EC00F080A039EF00F01EEF91
:1000700000F080B40DEC00F080B223EF00F0390EF8
:100080008A6E01EC00F001EC00F080A04AEF00F075
:100090001EEF00F080B40DEC00F080B223EF00F012
:1000A000770E8A6E01EC00F001EC00F080A05BEFAF
:1000B00000F01EEF00F080B40DEC00F080B223EFF2
:1000C00000F07F0E8A6E01EC00F001EC00F080A0E1
:1000D0006CEF00F01EEF00F080B40DEC00F080B289
:1000E00023EF00F07D0E8A6E01EC00F001EC00F0D1
:1000F00080A07DEF00F01EEF00F080B40DEC00F06A
:1001000080B223EF00F0660E8A6E01EC00F001EC85
:1001100000F080A08EEF00F01EEF00F080B40DEC38
:1001200000F080B223EF00F05B0E8A6E01EC00F06D
:1001300001EC00F080A09FEF00F01EEF00F080B413
:100140000DEC00F080B223EF00F03F0E8A6E01EC60
:1001500000F001EC00F019EF00F080B40DEC00F0BD
:1001600080B223EF00F0060E8A6E01EC00F001EC85
:1001700000F080A023EF00F0BEEF00F080B40DECA3
:1001800000F080B223EF00F04F0E8A6E01EC00F019
:1001900001EC00F080A023EF00F0CFEF00F080B47E
:1001A0000DEC00F080B223EF00F06D0E8A6E01ECD2
:1001B00000F001EC00F080A023EF00F0E0EF00F091
:1001C00080B40DEC00F080B223EF00F0470E8A6E91
:1001D00001EC00F001EC00F080A023EF00F0F1EF63
:1001E00000F080B40DEC00F080B223EF00F0670E59
:0E01F0008A6E01EC00F001EC00F019EF00F057
:0201FE000000FF
:020000040030CA
:0100000000FF
:0100010008F6
:0100020018E5
:010003001EDE
:010005008179
:010006008178
:010008000FE8
:01000900C036
:01000A000FE6
:01000B00E014
:01000C000FE4
:00000001FF
