:020000040000FA
:100000000DEF00F0F9263F0C060C5B0C4F0C660C54
:100010006D0C7D0C470C7F0C670C0F0EC16E070E2C
:10002000FF0E926E8A6A936A80CF00F00C0E001663
:100030000042004280CF01F0300E01160042004223
:100040000042004280A227EF00F02CEF00F080A0D9
:1000500031EF00F035EF00F080A23CEF00F040EF10
:1000600000F00050012441EF00F00050015CD8B0D6
:1000700041EF00F04DEF00F00050010247EF00F0BB
:100080008A6AE84402EC00F08A6E14EF00F0F34450
:1000900002EC00F08C6E14EF00F08C8EE86C41EFF7
:0200A00000F06E
:0200A20000005C
:020000040030CA
:0100000000FF
:0100010008F6
:0100020018E5
:010003001EDE
:010005008179
:010006008178
:010008000FE8
:01000900C036
:01000A000FE6
:01000B00E014
:01000C000FE4
:00000001FF
