:020000040000FA
:1000000025D0F9263F0C060C5B0C4F0C460E136EE8
:100010000000132E09EF00F0690E126E4D0E116EE6
:100020000000112EFED7122EF9D712000B0E146EFF
:100030000000142E19EF00F00A0E106E4D0E0F6E18
:1000400000000F2EFED7102EF9D71200846A966892
:100050000F0EC16E070E8A6A936A030E0E6E000EB3
:100060000D6E0D50E84401EC00F08A6E84A036EF6E
:1000700000F03BEF00F016EC00F084B03BEF00F036
:1000800042EF00F00D500E6248EF00F05AEF00F022
:100090000D2A0D50E84401EC00F08A6E06EC00F0E9
:1000A00006EC00F006EC00F006EC00F006EC00F0C8
:0800B00036EF00F026EF00F02E
:0200B800000046
:020000040030CA
:0100000000FF
:0100010008F6
:0100020018E5
:010003001EDE
:010005008179
:010006008178
:010008000FE8
:01000900C036
:01000A000FE6
:01000B00E014
:01000C000FE4
:00000001FF
