:020000040000FA
:100000000EEF00F0640E0E6E510E0D6E00000D2E00
:1000100007EF00F00E2E04EF00F01200936A8A6AD8
:10002000E86A800E8A6E02EC00F0400E8A6E02ECE6
:1000300000F0200E8A6E02EC00F0100E8A6E02ECC8
:1000400000F0080E8A6E02EC00F0040E8A6E02ECDC
:1000500000F0020E8A6E02EC00F0010E8A6E02ECD5
:1000600000F0020E8A6E02EC00F0040E8A6E02ECC2
:1000700000F0080E8A6E02EC00F0100E8A6E02ECA0
:1000800000F0200E8A6E02EC00F0200E8A6E02EC68
:0E00900000F0400E8A6E02EC00F011EF00F05E
:02009E00000060
:020000040030CA
:0100000000FF
:0100010008F6
:0100020018E5
:010003001EDE
:010005008179
:010006008178
:010008000FE8
:01000900C036
:01000A000FE6
:01000B00E014
:01000C000FE4
:00000001FF
