:020000040000FA
:100000000EEF00F0640E0E6E510E0D6E00000D2E00
:1000100007EF00F00E2E04EF00F01200936A8A6AD8
:10002000E86A790E8A6E02EC00F002EC00F002EC55
:1000300000F002EC00F002EC00F06D0E8A6E02ECB3
:1000400000F002EC00F002EC00F002EC00F002EC38
:1000500000F0390E8A6E02EC00F002EC00F002ECC7
:1000600000F002EC00F002EC00F0770E8A6E02EC79
:1000700000F002EC00F002EC00F002EC00F002EC08
:1000800000F0380E8A6E02EC00F002EC00F002EC98
:1000900000F002EC00F002EC00F0770E8A6E02EC49
:1000A00000F002EC00F002EC00F002EC00F002ECD8
:1000B00000F0740E8A6E02EC00F002EC00F002EC2C
:1000C00000F002EC00F002EC00F0780E8A6E02EC18
:1000D00000F002EC00F002EC00F002EC00F002ECA8
:1000E00000F0790E8A6E02EC00F002EC00F002ECF7
:0E00F00000F002EC00F002EC00F011EF00F066
:0200FE00000000
:020000040030CA
:0100000000FF
:0100010008F6
:0100020018E5
:010003001EDE
:010005008179
:010006008178
:010008000FE8
:01000900C036
:01000A000FE6
:01000B00E014
:01000C000FE4
:00000001FF
