:020000040000FA
:100000000F0EC16E070EFF0E926E000E936E8A6A7F
:10001000E86A80CF00F0180E00160042004200424D
:1000200080CF01F0600E01160142014201420142FF
:10003000014280A41EEF00F023EF00F080A228EF21
:1000400000F02DEF00F080A232EF00F037EF00F06B
:1000500080A03CEF00F041EF00F080A046EF00F000
:100060004CEF00F080A051EF00F056EF00F080A0C0
:100070005BEF00F060EF00F0005001248A6E09EFA2
:1000800000F00050015C8A6E09EF00F000500102A0
:10009000F3CF8AFF09EF00F0005001148A6E09EFD8
:1000A00000F0005001108A6E09EF00F000500118B6
:1000B0008A6E09EF00F00050E81C8A6E09EF00F02C
:0A00C000006C00C08AFF09EF00F099
:0200CA00000034
:020000040030CA
:0100000000FF
:0100010008F6
:0100020018E5
:010003001EDE
:010005008179
:010006008178
:010008000FE8
:01000900C036
:01000A000FE6
:01000B00E014
:01000C000FE4
:00000001FF
